{
  "contractName": "SupplyChain",
  "abi": [
    {
      "inputs": [],
      "stateMutability": "payable",
      "type": "constructor",
      "payable": true
    },
    {
      "anonymous": false,
      "inputs": [
        {
          "indexed": true,
          "internalType": "address",
          "name": "account",
          "type": "address"
        }
      ],
      "name": "ConsumerAdded",
      "type": "event"
    },
    {
      "anonymous": false,
      "inputs": [
        {
          "indexed": true,
          "internalType": "address",
          "name": "account",
          "type": "address"
        }
      ],
      "name": "ConsumerRemoved",
      "type": "event"
    },
    {
      "anonymous": false,
      "inputs": [
        {
          "indexed": true,
          "internalType": "address",
          "name": "account",
          "type": "address"
        }
      ],
      "name": "DistributorAdded",
      "type": "event"
    },
    {
      "anonymous": false,
      "inputs": [
        {
          "indexed": true,
          "internalType": "address",
          "name": "account",
          "type": "address"
        }
      ],
      "name": "DistributorRemoved",
      "type": "event"
    },
    {
      "anonymous": false,
      "inputs": [
        {
          "indexed": true,
          "internalType": "address",
          "name": "account",
          "type": "address"
        }
      ],
      "name": "FarmerAdded",
      "type": "event"
    },
    {
      "anonymous": false,
      "inputs": [
        {
          "indexed": true,
          "internalType": "address",
          "name": "account",
          "type": "address"
        }
      ],
      "name": "FarmerRemoved",
      "type": "event"
    },
    {
      "anonymous": false,
      "inputs": [
        {
          "indexed": false,
          "internalType": "uint256",
          "name": "upc",
          "type": "uint256"
        }
      ],
      "name": "ForSale",
      "type": "event"
    },
    {
      "anonymous": false,
      "inputs": [
        {
          "indexed": false,
          "internalType": "uint256",
          "name": "upc",
          "type": "uint256"
        }
      ],
      "name": "Harvested",
      "type": "event"
    },
    {
      "anonymous": false,
      "inputs": [
        {
          "indexed": false,
          "internalType": "uint256",
          "name": "upc",
          "type": "uint256"
        }
      ],
      "name": "Packed",
      "type": "event"
    },
    {
      "anonymous": false,
      "inputs": [
        {
          "indexed": false,
          "internalType": "uint256",
          "name": "upc",
          "type": "uint256"
        }
      ],
      "name": "Processed",
      "type": "event"
    },
    {
      "anonymous": false,
      "inputs": [
        {
          "indexed": false,
          "internalType": "uint256",
          "name": "upc",
          "type": "uint256"
        }
      ],
      "name": "Purchased",
      "type": "event"
    },
    {
      "anonymous": false,
      "inputs": [
        {
          "indexed": false,
          "internalType": "uint256",
          "name": "upc",
          "type": "uint256"
        }
      ],
      "name": "Received",
      "type": "event"
    },
    {
      "anonymous": false,
      "inputs": [
        {
          "indexed": true,
          "internalType": "address",
          "name": "account",
          "type": "address"
        }
      ],
      "name": "RetailerAdded",
      "type": "event"
    },
    {
      "anonymous": false,
      "inputs": [
        {
          "indexed": true,
          "internalType": "address",
          "name": "account",
          "type": "address"
        }
      ],
      "name": "RetailerRemoved",
      "type": "event"
    },
    {
      "anonymous": false,
      "inputs": [
        {
          "indexed": false,
          "internalType": "uint256",
          "name": "upc",
          "type": "uint256"
        }
      ],
      "name": "Shipped",
      "type": "event"
    },
    {
      "anonymous": false,
      "inputs": [
        {
          "indexed": false,
          "internalType": "uint256",
          "name": "upc",
          "type": "uint256"
        }
      ],
      "name": "Sold",
      "type": "event"
    },
    {
      "anonymous": false,
      "inputs": [
        {
          "indexed": true,
          "internalType": "address",
          "name": "oldOwner",
          "type": "address"
        },
        {
          "indexed": true,
          "internalType": "address",
          "name": "newOwner",
          "type": "address"
        }
      ],
      "name": "TransferOwnership",
      "type": "event"
    },
    {
      "inputs": [
        {
          "internalType": "address",
          "name": "account",
          "type": "address"
        }
      ],
      "name": "addConsumer",
      "outputs": [],
      "stateMutability": "nonpayable",
      "type": "function"
    },
    {
      "inputs": [
        {
          "internalType": "address",
          "name": "account",
          "type": "address"
        }
      ],
      "name": "addDistributor",
      "outputs": [],
      "stateMutability": "nonpayable",
      "type": "function"
    },
    {
      "inputs": [
        {
          "internalType": "address",
          "name": "account",
          "type": "address"
        }
      ],
      "name": "addFarmer",
      "outputs": [],
      "stateMutability": "nonpayable",
      "type": "function"
    },
    {
      "inputs": [
        {
          "internalType": "address",
          "name": "account",
          "type": "address"
        }
      ],
      "name": "addRetailer",
      "outputs": [],
      "stateMutability": "nonpayable",
      "type": "function"
    },
    {
      "inputs": [
        {
          "internalType": "address",
          "name": "account",
          "type": "address"
        }
      ],
      "name": "isConsumer",
      "outputs": [
        {
          "internalType": "bool",
          "name": "",
          "type": "bool"
        }
      ],
      "stateMutability": "view",
      "type": "function",
      "constant": true
    },
    {
      "inputs": [
        {
          "internalType": "address",
          "name": "account",
          "type": "address"
        }
      ],
      "name": "isDistributor",
      "outputs": [
        {
          "internalType": "bool",
          "name": "",
          "type": "bool"
        }
      ],
      "stateMutability": "view",
      "type": "function",
      "constant": true
    },
    {
      "inputs": [
        {
          "internalType": "address",
          "name": "account",
          "type": "address"
        }
      ],
      "name": "isFarmer",
      "outputs": [
        {
          "internalType": "bool",
          "name": "",
          "type": "bool"
        }
      ],
      "stateMutability": "view",
      "type": "function",
      "constant": true
    },
    {
      "inputs": [],
      "name": "isOwner",
      "outputs": [
        {
          "internalType": "bool",
          "name": "",
          "type": "bool"
        }
      ],
      "stateMutability": "view",
      "type": "function",
      "constant": true
    },
    {
      "inputs": [
        {
          "internalType": "address",
          "name": "account",
          "type": "address"
        }
      ],
      "name": "isRetailer",
      "outputs": [
        {
          "internalType": "bool",
          "name": "",
          "type": "bool"
        }
      ],
      "stateMutability": "view",
      "type": "function",
      "constant": true
    },
    {
      "inputs": [],
      "name": "owner",
      "outputs": [
        {
          "internalType": "address",
          "name": "",
          "type": "address"
        }
      ],
      "stateMutability": "view",
      "type": "function",
      "constant": true
    },
    {
      "inputs": [],
      "name": "renounceConsumer",
      "outputs": [],
      "stateMutability": "nonpayable",
      "type": "function"
    },
    {
      "inputs": [],
      "name": "renounceDistributor",
      "outputs": [],
      "stateMutability": "nonpayable",
      "type": "function"
    },
    {
      "inputs": [],
      "name": "renounceFarmer",
      "outputs": [],
      "stateMutability": "nonpayable",
      "type": "function"
    },
    {
      "inputs": [],
      "name": "renounceOwnership",
      "outputs": [],
      "stateMutability": "nonpayable",
      "type": "function"
    },
    {
      "inputs": [],
      "name": "renounceRetailer",
      "outputs": [],
      "stateMutability": "nonpayable",
      "type": "function"
    },
    {
      "inputs": [
        {
          "internalType": "address",
          "name": "newOwner",
          "type": "address"
        }
      ],
      "name": "transferOwnership",
      "outputs": [],
      "stateMutability": "nonpayable",
      "type": "function"
    },
    {
      "inputs": [],
      "name": "kill",
      "outputs": [],
      "stateMutability": "nonpayable",
      "type": "function"
    },
    {
      "inputs": [
        {
          "internalType": "uint256",
          "name": "_upc",
          "type": "uint256"
        },
        {
          "internalType": "address",
          "name": "_originFarmerID",
          "type": "address"
        },
        {
          "internalType": "string",
          "name": "_originFarmName",
          "type": "string"
        },
        {
          "internalType": "string",
          "name": "_originFarmInformation",
          "type": "string"
        },
        {
          "internalType": "string",
          "name": "_originFarmLatitude",
          "type": "string"
        },
        {
          "internalType": "string",
          "name": "_originFarmLongitude",
          "type": "string"
        },
        {
          "internalType": "string",
          "name": "_productNotes",
          "type": "string"
        }
      ],
      "name": "harvestItem",
      "outputs": [],
      "stateMutability": "nonpayable",
      "type": "function"
    },
    {
      "inputs": [
        {
          "internalType": "uint256",
          "name": "_upc",
          "type": "uint256"
        }
      ],
      "name": "processItem",
      "outputs": [],
      "stateMutability": "nonpayable",
      "type": "function"
    },
    {
      "inputs": [
        {
          "internalType": "uint256",
          "name": "_upc",
          "type": "uint256"
        }
      ],
      "name": "packItem",
      "outputs": [],
      "stateMutability": "nonpayable",
      "type": "function"
    },
    {
      "inputs": [
        {
          "internalType": "uint256",
          "name": "_upc",
          "type": "uint256"
        },
        {
          "internalType": "uint256",
          "name": "_price",
          "type": "uint256"
        }
      ],
      "name": "sellItem",
      "outputs": [],
      "stateMutability": "nonpayable",
      "type": "function"
    },
    {
      "inputs": [
        {
          "internalType": "uint256",
          "name": "_upc",
          "type": "uint256"
        }
      ],
      "name": "buyItem",
      "outputs": [],
      "stateMutability": "payable",
      "type": "function",
      "payable": true
    },
    {
      "inputs": [
        {
          "internalType": "uint256",
          "name": "_upc",
          "type": "uint256"
        }
      ],
      "name": "shipItem",
      "outputs": [],
      "stateMutability": "nonpayable",
      "type": "function"
    },
    {
      "inputs": [
        {
          "internalType": "uint256",
          "name": "_upc",
          "type": "uint256"
        }
      ],
      "name": "receiveItem",
      "outputs": [],
      "stateMutability": "nonpayable",
      "type": "function"
    },
    {
      "inputs": [
        {
          "internalType": "uint256",
          "name": "_upc",
          "type": "uint256"
        }
      ],
      "name": "purchaseItem",
      "outputs": [],
      "stateMutability": "nonpayable",
      "type": "function"
    },
    {
      "inputs": [
        {
          "internalType": "uint256",
          "name": "_upc",
          "type": "uint256"
        }
      ],
      "name": "fetchItem",
      "outputs": [
        {
          "components": [
            {
              "internalType": "uint256",
              "name": "sku",
              "type": "uint256"
            },
            {
              "internalType": "uint256",
              "name": "upc",
              "type": "uint256"
            },
            {
              "internalType": "address",
              "name": "ownerID",
              "type": "address"
            },
            {
              "internalType": "address",
              "name": "originFarmerID",
              "type": "address"
            },
            {
              "internalType": "string",
              "name": "originFarmName",
              "type": "string"
            },
            {
              "internalType": "string",
              "name": "originFarmInformation",
              "type": "string"
            },
            {
              "internalType": "string",
              "name": "originFarmLatitude",
              "type": "string"
            },
            {
              "internalType": "string",
              "name": "originFarmLongitude",
              "type": "string"
            },
            {
              "internalType": "uint256",
              "name": "productID",
              "type": "uint256"
            },
            {
              "internalType": "string",
              "name": "productNotes",
              "type": "string"
            },
            {
              "internalType": "uint256",
              "name": "productPrice",
              "type": "uint256"
            },
            {
              "internalType": "enum SupplyChain.State",
              "name": "itemState",
              "type": "uint8"
            },
            {
              "internalType": "address",
              "name": "distributorID",
              "type": "address"
            },
            {
              "internalType": "address",
              "name": "retailerID",
              "type": "address"
            },
            {
              "internalType": "address payable",
              "name": "consumerID",
              "type": "address"
            }
          ],
          "internalType": "struct SupplyChain.Item",
          "name": "item",
          "type": "tuple"
        }
      ],
      "stateMutability": "view",
      "type": "function",
      "constant": true
    },
    {
      "inputs": [
        {
          "internalType": "uint256",
          "name": "_upc",
          "type": "uint256"
        }
      ],
      "name": "fetchItemBufferOne",
      "outputs": [
        {
          "components": [
            {
              "internalType": "uint256",
              "name": "sku",
              "type": "uint256"
            },
            {
              "internalType": "uint256",
              "name": "upc",
              "type": "uint256"
            },
            {
              "internalType": "address",
              "name": "ownerID",
              "type": "address"
            },
            {
              "internalType": "address",
              "name": "originFarmerID",
              "type": "address"
            },
            {
              "internalType": "string",
              "name": "originFarmName",
              "type": "string"
            },
            {
              "internalType": "string",
              "name": "originFarmInformation",
              "type": "string"
            },
            {
              "internalType": "string",
              "name": "originFarmLatitude",
              "type": "string"
            },
            {
              "internalType": "string",
              "name": "originFarmLongitude",
              "type": "string"
            },
            {
              "internalType": "uint256",
              "name": "productID",
              "type": "uint256"
            },
            {
              "internalType": "string",
              "name": "productNotes",
              "type": "string"
            },
            {
              "internalType": "uint256",
              "name": "productPrice",
              "type": "uint256"
            },
            {
              "internalType": "enum SupplyChain.State",
              "name": "itemState",
              "type": "uint8"
            },
            {
              "internalType": "address",
              "name": "distributorID",
              "type": "address"
            },
            {
              "internalType": "address",
              "name": "retailerID",
              "type": "address"
            },
            {
              "internalType": "address payable",
              "name": "consumerID",
              "type": "address"
            }
          ],
          "internalType": "struct SupplyChain.Item",
          "name": "item",
          "type": "tuple"
        }
      ],
      "stateMutability": "view",
      "type": "function",
      "constant": true
    },
    {
      "inputs": [
        {
          "internalType": "uint256",
          "name": "_upc",
          "type": "uint256"
        }
      ],
      "name": "fetchItemBufferTwo",
      "outputs": [
        {
          "components": [
            {
              "internalType": "uint256",
              "name": "sku",
              "type": "uint256"
            },
            {
              "internalType": "uint256",
              "name": "upc",
              "type": "uint256"
            },
            {
              "internalType": "address",
              "name": "ownerID",
              "type": "address"
            },
            {
              "internalType": "address",
              "name": "originFarmerID",
              "type": "address"
            },
            {
              "internalType": "string",
              "name": "originFarmName",
              "type": "string"
            },
            {
              "internalType": "string",
              "name": "originFarmInformation",
              "type": "string"
            },
            {
              "internalType": "string",
              "name": "originFarmLatitude",
              "type": "string"
            },
            {
              "internalType": "string",
              "name": "originFarmLongitude",
              "type": "string"
            },
            {
              "internalType": "uint256",
              "name": "productID",
              "type": "uint256"
            },
            {
              "internalType": "string",
              "name": "productNotes",
              "type": "string"
            },
            {
              "internalType": "uint256",
              "name": "productPrice",
              "type": "uint256"
            },
            {
              "internalType": "enum SupplyChain.State",
              "name": "itemState",
              "type": "uint8"
            },
            {
              "internalType": "address",
              "name": "distributorID",
              "type": "address"
            },
            {
              "internalType": "address",
              "name": "retailerID",
              "type": "address"
            },
            {
              "internalType": "address payable",
              "name": "consumerID",
              "type": "address"
            }
          ],
          "internalType": "struct SupplyChain.Item",
          "name": "item",
          "type": "tuple"
        }
      ],
      "stateMutability": "view",
      "type": "function",
      "constant": true
    }
  ],
  "bytecode": "0x6080604052336000806101000a81548173ffffffffffffffffffffffffffffffffffffffff021916908373ffffffffffffffffffffffffffffffffffffffff16021790555060008054906101000a900473ffffffffffffffffffffffffffffffffffffffff1673ffffffffffffffffffffffffffffffffffffffff16600073ffffffffffffffffffffffffffffffffffffffff167f5c486528ec3e3f0ea91181cff8116f02bfa350e03b8b6f12e00765adbb5af85c60405160405180910390a3620000d0336200011960201b60201c565b620000e1336200017a60201b60201c565b620000f233620001db60201b60201c565b62000103336200023c60201b60201c565b60016006819055506001600581905550620003e6565b620001348160016200029d60201b62002e371790919060201c565b8073ffffffffffffffffffffffffffffffffffffffff167f28b26e7a3d20aedbc5f8f2ebf7da671c0491723a2b78f47a097b0e46dee0714260405160405180910390a250565b620001958160026200029d60201b62002e371790919060201c565b8073ffffffffffffffffffffffffffffffffffffffff167f71ae26cad02663e3d92efd6ec56031a80d74a20c0ab4183faa8bf262261c9baa60405160405180910390a250565b620001f68160036200029d60201b62002e371790919060201c565b8073ffffffffffffffffffffffffffffffffffffffff167f2e0ded4123377a3c2bc9a26f1717655a129e2f20752924d42e730ec89c83dbd060405160405180910390a250565b620002578160046200029d60201b62002e371790919060201c565b8073ffffffffffffffffffffffffffffffffffffffff167fddbf200aa634dc3fb81cfd68583dd1040d1c751d335e1d86b631bde3e977fea860405160405180910390a250565b600073ffffffffffffffffffffffffffffffffffffffff168173ffffffffffffffffffffffffffffffffffffffff161415620002d857600080fd5b620002ea82826200035360201b60201c565b15620002f557600080fd5b60018260000160008373ffffffffffffffffffffffffffffffffffffffff1673ffffffffffffffffffffffffffffffffffffffff16815260200190815260200160002060006101000a81548160ff0219169083151502179055505050565b60008073ffffffffffffffffffffffffffffffffffffffff168273ffffffffffffffffffffffffffffffffffffffff1614156200038f57600080fd5b8260000160008373ffffffffffffffffffffffffffffffffffffffff1673ffffffffffffffffffffffffffffffffffffffff16815260200190815260200160002060009054906101000a900460ff16905092915050565b61404e80620003f66000396000f3fe6080604052600436106101b75760003560e01c80638da5cb5b116100ec578063bdd8a6a81161008a578063e7fb74c711610064578063e7fb74c7146105b8578063f2fde38b146105d4578063f30fc480146105fd578063f61c899a14610626576101b7565b8063bdd8a6a81461054f578063d38ea5bf14610578578063db0e6a2f146105a1576101b7565b80638f32d59b116100c65780638f32d59b14610481578063a26be999146104ac578063ad4b9cfb146104d5578063b942906914610512576101b7565b80638da5cb5b146103f05780638ec4f5051461041b5780638f0c86fa14610444576101b7565b806366225ff91161015957806377c459131161013357806377c459131461033657806380c3f96d1461037357806380fc0ce41461039c578063834ff739146103b3576101b7565b806366225ff9146102b9578063715018a6146102f65780637250e2241461030d576101b7565b806349dae7661161019557806349dae766146102255780635da09b881461024e57806361e6982d1461028b578063644241db146102a2576101b7565b8063112940f9146101bc5780632d923561146101e557806341c0e1b51461020e575b600080fd5b3480156101c857600080fd5b506101e360048036038101906101de9190613638565b61064f565b005b3480156101f157600080fd5b5061020c600480360381019061020791906137a0565b6106a3565b005b34801561021a57600080fd5b506102236108a6565b005b34801561023157600080fd5b5061024c60048036038101906102479190613661565b6108b0565b005b34801561025a57600080fd5b5061027560048036038101906102709190613638565b610a97565b6040516102829190613aca565b60405180910390f35b34801561029757600080fd5b506102a0610ab4565b005b3480156102ae57600080fd5b506102b7610abf565b005b3480156102c557600080fd5b506102e060048036038101906102db9190613661565b610aca565b6040516102ed9190613ba5565b60405180910390f35b34801561030257600080fd5b5061030b61102f565b005b34801561031957600080fd5b50610334600480360381019061032f9190613638565b6110fe565b005b34801561034257600080fd5b5061035d60048036038101906103589190613661565b611152565b60405161036a9190613ba5565b60405180910390f35b34801561037f57600080fd5b5061039a60048036038101906103959190613638565b6116b7565b005b3480156103a857600080fd5b506103b161170b565b005b3480156103bf57600080fd5b506103da60048036038101906103d59190613638565b611716565b6040516103e79190613aca565b60405180910390f35b3480156103fc57600080fd5b50610405611733565b6040516104129190613aaf565b60405180910390f35b34801561042757600080fd5b50610442600480360381019061043d9190613638565b61175c565b005b34801561045057600080fd5b5061046b60048036038101906104669190613638565b6117b0565b6040516104789190613aca565b60405180910390f35b34801561048d57600080fd5b506104966117cd565b6040516104a39190613aca565b60405180910390f35b3480156104b857600080fd5b506104d360048036038101906104ce9190613661565b611824565b005b3480156104e157600080fd5b506104fc60048036038101906104f79190613661565b611a57565b6040516105099190613ba5565b60405180910390f35b34801561051e57600080fd5b5061053960048036038101906105349190613638565b611fbc565b6040516105469190613aca565b60405180910390f35b34801561055b57600080fd5b506105766004803603810190610571919061368a565b611fd9565b005b34801561058457600080fd5b5061059f600480360381019061059a9190613661565b612423565b005b3480156105ad57600080fd5b506105b6612655565b005b6105d260048036038101906105cd9190613661565b612660565b005b3480156105e057600080fd5b506105fb60048036038101906105f69190613638565b6129f7565b005b34801561060957600080fd5b50610624600480360381019061061f9190613661565b612a14565b005b34801561063257600080fd5b5061064d60048036038101906106489190613661565b612bfb565b005b61065833611716565b610697576040517f08c379a000000000000000000000000000000000000000000000000000000000815260040161068e90613b05565b60405180910390fd5b6106a081612ee3565b50565b81600260078111156106de577f4e487b7100000000000000000000000000000000000000000000000000000000600052602160045260246000fd5b60076000838152602001908152602001600020600b0160009054906101000a900460ff16600781111561073a577f4e487b7100000000000000000000000000000000000000000000000000000000600052602160045260246000fd5b1461074457600080fd5b6007600084815260200190815260200160002060020160009054906101000a900473ffffffffffffffffffffffffffffffffffffffff168073ffffffffffffffffffffffffffffffffffffffff163373ffffffffffffffffffffffffffffffffffffffff16146107e9576040517f08c379a00000000000000000000000000000000000000000000000000000000081526004016107e090613b45565b60405180910390fd5b600360076000868152602001908152602001600020600b0160006101000a81548160ff02191690836007811115610849577f4e487b7100000000000000000000000000000000000000000000000000000000600052602160045260246000fd5b02179055508260076000868152602001908152602001600020600a01819055507fa96ae0fc3224ebd79eebfe54bd130cc9cb94416cddd1f2386115e00b72532468846040516108989190613bc7565b60405180910390a150505050565b6108ae61102f565b565b80600060078111156108eb577f4e487b7100000000000000000000000000000000000000000000000000000000600052602160045260246000fd5b60076000838152602001908152602001600020600b0160009054906101000a900460ff166007811115610947577f4e487b7100000000000000000000000000000000000000000000000000000000600052602160045260246000fd5b1461095157600080fd5b6007600083815260200190815260200160002060020160009054906101000a900473ffffffffffffffffffffffffffffffffffffffff168073ffffffffffffffffffffffffffffffffffffffff163373ffffffffffffffffffffffffffffffffffffffff16146109f6576040517f08c379a00000000000000000000000000000000000000000000000000000000081526004016109ed90613b45565b60405180910390fd5b600160076000858152602001908152602001600020600b0160006101000a81548160ff02191690836007811115610a56577f4e487b7100000000000000000000000000000000000000000000000000000000600052602160045260246000fd5b02179055507f5afe3b1bf87069693c075da5c22a98d63d1aef98a30dbbe538d0781a98b77ee583604051610a8a9190613bc7565b60405180910390a1505050565b6000610aad826002612f3d90919063ffffffff16565b9050919050565b610abd33612fcf565b565b610ac833613029565b565b610ad26133e7565b60076000838152602001908152602001600020604051806101e001604052908160008201548152602001600182015481526020016002820160009054906101000a900473ffffffffffffffffffffffffffffffffffffffff1673ffffffffffffffffffffffffffffffffffffffff1673ffffffffffffffffffffffffffffffffffffffff1681526020016003820160009054906101000a900473ffffffffffffffffffffffffffffffffffffffff1673ffffffffffffffffffffffffffffffffffffffff1673ffffffffffffffffffffffffffffffffffffffff168152602001600482018054610bc190613db0565b80601f0160208091040260200160405190810160405280929190818152602001828054610bed90613db0565b8015610c3a5780601f10610c0f57610100808354040283529160200191610c3a565b820191906000526020600020905b815481529060010190602001808311610c1d57829003601f168201915b50505050508152602001600582018054610c5390613db0565b80601f0160208091040260200160405190810160405280929190818152602001828054610c7f90613db0565b8015610ccc5780601f10610ca157610100808354040283529160200191610ccc565b820191906000526020600020905b815481529060010190602001808311610caf57829003601f168201915b50505050508152602001600682018054610ce590613db0565b80601f0160208091040260200160405190810160405280929190818152602001828054610d1190613db0565b8015610d5e5780601f10610d3357610100808354040283529160200191610d5e565b820191906000526020600020905b815481529060010190602001808311610d4157829003601f168201915b50505050508152602001600782018054610d7790613db0565b80601f0160208091040260200160405190810160405280929190818152602001828054610da390613db0565b8015610df05780601f10610dc557610100808354040283529160200191610df0565b820191906000526020600020905b815481529060010190602001808311610dd357829003601f168201915b5050505050815260200160088201548152602001600982018054610e1390613db0565b80601f0160208091040260200160405190810160405280929190818152602001828054610e3f90613db0565b8015610e8c5780601f10610e6157610100808354040283529160200191610e8c565b820191906000526020600020905b815481529060010190602001808311610e6f57829003601f168201915b50505050508152602001600a8201548152602001600b820160009054906101000a900460ff166007811115610eea577f4e487b7100000000000000000000000000000000000000000000000000000000600052602160045260246000fd5b6007811115610f22577f4e487b7100000000000000000000000000000000000000000000000000000000600052602160045260246000fd5b8152602001600b820160019054906101000a900473ffffffffffffffffffffffffffffffffffffffff1673ffffffffffffffffffffffffffffffffffffffff1673ffffffffffffffffffffffffffffffffffffffff168152602001600c820160009054906101000a900473ffffffffffffffffffffffffffffffffffffffff1673ffffffffffffffffffffffffffffffffffffffff1673ffffffffffffffffffffffffffffffffffffffff168152602001600d820160009054906101000a900473ffffffffffffffffffffffffffffffffffffffff1673ffffffffffffffffffffffffffffffffffffffff1673ffffffffffffffffffffffffffffffffffffffff16815250509050919050565b6110376117cd565b61104057600080fd5b600073ffffffffffffffffffffffffffffffffffffffff1660008054906101000a900473ffffffffffffffffffffffffffffffffffffffff1673ffffffffffffffffffffffffffffffffffffffff167f5c486528ec3e3f0ea91181cff8116f02bfa350e03b8b6f12e00765adbb5af85c60405160405180910390a360008060006101000a81548173ffffffffffffffffffffffffffffffffffffffff021916908373ffffffffffffffffffffffffffffffffffffffff160217905550565b611107336117b0565b611146576040517f08c379a000000000000000000000000000000000000000000000000000000000815260040161113d90613b25565b60405180910390fd5b61114f81613083565b50565b61115a6133e7565b60076000838152602001908152602001600020604051806101e001604052908160008201548152602001600182015481526020016002820160009054906101000a900473ffffffffffffffffffffffffffffffffffffffff1673ffffffffffffffffffffffffffffffffffffffff1673ffffffffffffffffffffffffffffffffffffffff1681526020016003820160009054906101000a900473ffffffffffffffffffffffffffffffffffffffff1673ffffffffffffffffffffffffffffffffffffffff1673ffffffffffffffffffffffffffffffffffffffff16815260200160048201805461124990613db0565b80601f016020809104026020016040519081016040528092919081815260200182805461127590613db0565b80156112c25780601f10611297576101008083540402835291602001916112c2565b820191906000526020600020905b8154815290600101906020018083116112a557829003601f168201915b505050505081526020016005820180546112db90613db0565b80601f016020809104026020016040519081016040528092919081815260200182805461130790613db0565b80156113545780601f1061132957610100808354040283529160200191611354565b820191906000526020600020905b81548152906001019060200180831161133757829003601f168201915b5050505050815260200160068201805461136d90613db0565b80601f016020809104026020016040519081016040528092919081815260200182805461139990613db0565b80156113e65780601f106113bb576101008083540402835291602001916113e6565b820191906000526020600020905b8154815290600101906020018083116113c957829003601f168201915b505050505081526020016007820180546113ff90613db0565b80601f016020809104026020016040519081016040528092919081815260200182805461142b90613db0565b80156114785780601f1061144d57610100808354040283529160200191611478565b820191906000526020600020905b81548152906001019060200180831161145b57829003601f168201915b505050505081526020016008820154815260200160098201805461149b90613db0565b80601f01602080910402602001604051908101604052809291908181526020018280546114c790613db0565b80156115145780601f106114e957610100808354040283529160200191611514565b820191906000526020600020905b8154815290600101906020018083116114f757829003601f168201915b50505050508152602001600a8201548152602001600b820160009054906101000a900460ff166007811115611572577f4e487b7100000000000000000000000000000000000000000000000000000000600052602160045260246000fd5b60078111156115aa577f4e487b7100000000000000000000000000000000000000000000000000000000600052602160045260246000fd5b8152602001600b820160019054906101000a900473ffffffffffffffffffffffffffffffffffffffff1673ffffffffffffffffffffffffffffffffffffffff1673ffffffffffffffffffffffffffffffffffffffff168152602001600c820160009054906101000a900473ffffffffffffffffffffffffffffffffffffffff1673ffffffffffffffffffffffffffffffffffffffff1673ffffffffffffffffffffffffffffffffffffffff168152602001600d820160009054906101000a900473ffffffffffffffffffffffffffffffffffffffff1673ffffffffffffffffffffffffffffffffffffffff1673ffffffffffffffffffffffffffffffffffffffff16815250509050919050565b6116c033611fbc565b6116ff576040517f08c379a00000000000000000000000000000000000000000000000000000000081526004016116f690613b65565b60405180910390fd5b611708816130dd565b50565b61171433613137565b565b600061172c826001612f3d90919063ffffffff16565b9050919050565b60008060009054906101000a900473ffffffffffffffffffffffffffffffffffffffff16905090565b61176533610a97565b6117a4576040517f08c379a000000000000000000000000000000000000000000000000000000000815260040161179b90613ae5565b60405180910390fd5b6117ad81613191565b50565b60006117c6826004612f3d90919063ffffffff16565b9050919050565b60008060009054906101000a900473ffffffffffffffffffffffffffffffffffffffff1673ffffffffffffffffffffffffffffffffffffffff163373ffffffffffffffffffffffffffffffffffffffff1614905090565b806005600781111561185f577f4e487b7100000000000000000000000000000000000000000000000000000000600052602160045260246000fd5b60076000838152602001908152602001600020600b0160009054906101000a900460ff1660078111156118bb577f4e487b7100000000000000000000000000000000000000000000000000000000600052602160045260246000fd5b146118c557600080fd5b6118ce33610a97565b61190d576040517f08c379a000000000000000000000000000000000000000000000000000000000815260040161190490613ae5565b60405180910390fd5b600660076000848152602001908152602001600020600b0160006101000a81548160ff0219169083600781111561196d577f4e487b7100000000000000000000000000000000000000000000000000000000600052602160045260246000fd5b02179055503360076000848152602001908152602001600020600c0160006101000a81548173ffffffffffffffffffffffffffffffffffffffff021916908373ffffffffffffffffffffffffffffffffffffffff160217905550336007600084815260200190815260200160002060020160006101000a81548173ffffffffffffffffffffffffffffffffffffffff021916908373ffffffffffffffffffffffffffffffffffffffff1602179055507fa8142743f8f70a4c26f3691cf4ed59718381fb2f18070ec52be1f1022d85555782604051611a4b9190613bc7565b60405180910390a15050565b611a5f6133e7565b60076000838152602001908152602001600020604051806101e001604052908160008201548152602001600182015481526020016002820160009054906101000a900473ffffffffffffffffffffffffffffffffffffffff1673ffffffffffffffffffffffffffffffffffffffff1673ffffffffffffffffffffffffffffffffffffffff1681526020016003820160009054906101000a900473ffffffffffffffffffffffffffffffffffffffff1673ffffffffffffffffffffffffffffffffffffffff1673ffffffffffffffffffffffffffffffffffffffff168152602001600482018054611b4e90613db0565b80601f0160208091040260200160405190810160405280929190818152602001828054611b7a90613db0565b8015611bc75780601f10611b9c57610100808354040283529160200191611bc7565b820191906000526020600020905b815481529060010190602001808311611baa57829003601f168201915b50505050508152602001600582018054611be090613db0565b80601f0160208091040260200160405190810160405280929190818152602001828054611c0c90613db0565b8015611c595780601f10611c2e57610100808354040283529160200191611c59565b820191906000526020600020905b815481529060010190602001808311611c3c57829003601f168201915b50505050508152602001600682018054611c7290613db0565b80601f0160208091040260200160405190810160405280929190818152602001828054611c9e90613db0565b8015611ceb5780601f10611cc057610100808354040283529160200191611ceb565b820191906000526020600020905b815481529060010190602001808311611cce57829003601f168201915b50505050508152602001600782018054611d0490613db0565b80601f0160208091040260200160405190810160405280929190818152602001828054611d3090613db0565b8015611d7d5780601f10611d5257610100808354040283529160200191611d7d565b820191906000526020600020905b815481529060010190602001808311611d6057829003601f168201915b5050505050815260200160088201548152602001600982018054611da090613db0565b80601f0160208091040260200160405190810160405280929190818152602001828054611dcc90613db0565b8015611e195780601f10611dee57610100808354040283529160200191611e19565b820191906000526020600020905b815481529060010190602001808311611dfc57829003601f168201915b50505050508152602001600a8201548152602001600b820160009054906101000a900460ff166007811115611e77577f4e487b7100000000000000000000000000000000000000000000000000000000600052602160045260246000fd5b6007811115611eaf577f4e487b7100000000000000000000000000000000000000000000000000000000600052602160045260246000fd5b8152602001600b820160019054906101000a900473ffffffffffffffffffffffffffffffffffffffff1673ffffffffffffffffffffffffffffffffffffffff1673ffffffffffffffffffffffffffffffffffffffff168152602001600c820160009054906101000a900473ffffffffffffffffffffffffffffffffffffffff1673ffffffffffffffffffffffffffffffffffffffff1673ffffffffffffffffffffffffffffffffffffffff168152602001600d820160009054906101000a900473ffffffffffffffffffffffffffffffffffffffff1673ffffffffffffffffffffffffffffffffffffffff1673ffffffffffffffffffffffffffffffffffffffff16815250509050919050565b6000611fd2826003612f3d90919063ffffffff16565b9050919050565b611fe233611fbc565b612021576040517f08c379a000000000000000000000000000000000000000000000000000000000815260040161201890613b65565b60405180910390fd5b604051806101e0016040528060065481526020018881526020013373ffffffffffffffffffffffffffffffffffffffff1681526020018773ffffffffffffffffffffffffffffffffffffffff168152602001868152602001858152602001848152602001838152602001600654896120999190613c65565b815260200182815260200160008152602001600060078111156120e5577f4e487b7100000000000000000000000000000000000000000000000000000000600052602160045260246000fd5b8152602001600073ffffffffffffffffffffffffffffffffffffffff168152602001600073ffffffffffffffffffffffffffffffffffffffff168152602001600073ffffffffffffffffffffffffffffffffffffffff1681525060076000898152602001908152602001600020600082015181600001556020820151816001015560408201518160020160006101000a81548173ffffffffffffffffffffffffffffffffffffffff021916908373ffffffffffffffffffffffffffffffffffffffff16021790555060608201518160030160006101000a81548173ffffffffffffffffffffffffffffffffffffffff021916908373ffffffffffffffffffffffffffffffffffffffff1602179055506080820151816004019080519060200190612210929190613503565b5060a082015181600501908051906020019061222d929190613503565b5060c082015181600601908051906020019061224a929190613503565b5060e0820151816007019080519060200190612267929190613503565b506101008201518160080155610120820151816009019080519060200190612290929190613503565b5061014082015181600a015561016082015181600b0160006101000a81548160ff021916908360078111156122ee577f4e487b7100000000000000000000000000000000000000000000000000000000600052602160045260246000fd5b021790555061018082015181600b0160016101000a81548173ffffffffffffffffffffffffffffffffffffffff021916908373ffffffffffffffffffffffffffffffffffffffff1602179055506101a082015181600c0160006101000a81548173ffffffffffffffffffffffffffffffffffffffff021916908373ffffffffffffffffffffffffffffffffffffffff1602179055506101c082015181600d0160006101000a81548173ffffffffffffffffffffffffffffffffffffffff021916908373ffffffffffffffffffffffffffffffffffffffff16021790555090505060016006546123dd9190613c65565b6006819055507f8e55ccfc9778ff8eba1646d765cf1982537ce0f9257054a17b48aad745250183876040516124129190613bc7565b60405180910390a150505050505050565b806006600781111561245e577f4e487b7100000000000000000000000000000000000000000000000000000000600052602160045260246000fd5b60076000838152602001908152602001600020600b0160009054906101000a900460ff1660078111156124ba577f4e487b7100000000000000000000000000000000000000000000000000000000600052602160045260246000fd5b146124c457600080fd5b6124cd33611716565b61250c576040517f08c379a000000000000000000000000000000000000000000000000000000000815260040161250390613b05565b60405180910390fd5b336007600084815260200190815260200160002060020160006101000a81548173ffffffffffffffffffffffffffffffffffffffff021916908373ffffffffffffffffffffffffffffffffffffffff1602179055503360076000848152602001908152602001600020600d0160006101000a81548173ffffffffffffffffffffffffffffffffffffffff021916908373ffffffffffffffffffffffffffffffffffffffff1602179055506007806000848152602001908152602001600020600b0160006101000a81548160ff02191690836007811115612615577f4e487b7100000000000000000000000000000000000000000000000000000000600052602160045260246000fd5b02179055507f653d56639fee6b566a5c804764e9689de38645f0b733df89a36a1b7b42173dd8826040516126499190613bc7565b60405180910390a15050565b61265e336131eb565b565b806003600781111561269b577f4e487b7100000000000000000000000000000000000000000000000000000000600052602160045260246000fd5b60076000838152602001908152602001600020600b0160009054906101000a900460ff1660078111156126f7577f4e487b7100000000000000000000000000000000000000000000000000000000600052602160045260246000fd5b1461270157600080fd5b60076000838152602001908152602001600020600a01548034101561275b576040517f08c379a000000000000000000000000000000000000000000000000000000000815260040161275290613b85565b60405180910390fd5b82612765336117b0565b6127a4576040517f08c379a000000000000000000000000000000000000000000000000000000000815260040161279b90613b25565b60405180910390fd5b600460076000868152602001908152602001600020600b0160006101000a81548160ff02191690836007811115612804577f4e487b7100000000000000000000000000000000000000000000000000000000600052602160045260246000fd5b0217905550336007600086815260200190815260200160002060020160006101000a81548173ffffffffffffffffffffffffffffffffffffffff021916908373ffffffffffffffffffffffffffffffffffffffff1602179055503360076000868152602001908152602001600020600b0160016101000a81548173ffffffffffffffffffffffffffffffffffffffff021916908373ffffffffffffffffffffffffffffffffffffffff1602179055506007600085815260200190815260200160002060030160009054906101000a900473ffffffffffffffffffffffffffffffffffffffff1673ffffffffffffffffffffffffffffffffffffffff166108fc60076000878152602001908152602001600020600a01549081150290604051600060405180830381858888f19350505050158015612945573d6000803e3d6000fd5b507f92f64ca637d023f354075a4be751b169c1a8a9ccb6d33cdd0cb3520543995727846040516129759190613bc7565b60405180910390a1600060076000838152602001908152602001600020600a01549050600081346129a69190613cbb565b90503373ffffffffffffffffffffffffffffffffffffffff166108fc829081150290604051600060405180830381858888f193505050501580156129ee573d6000803e3d6000fd5b50505050505050565b6129ff6117cd565b612a0857600080fd5b612a1181613245565b50565b8060016007811115612a4f577f4e487b7100000000000000000000000000000000000000000000000000000000600052602160045260246000fd5b60076000838152602001908152602001600020600b0160009054906101000a900460ff166007811115612aab577f4e487b7100000000000000000000000000000000000000000000000000000000600052602160045260246000fd5b14612ab557600080fd5b6007600083815260200190815260200160002060020160009054906101000a900473ffffffffffffffffffffffffffffffffffffffff168073ffffffffffffffffffffffffffffffffffffffff163373ffffffffffffffffffffffffffffffffffffffff1614612b5a576040517f08c379a0000000000000000000000000000000000000000000000000000000008152600401612b5190613b45565b60405180910390fd5b600260076000858152602001908152602001600020600b0160006101000a81548160ff02191690836007811115612bba577f4e487b7100000000000000000000000000000000000000000000000000000000600052602160045260246000fd5b02179055507f9b3b66e2380b690bae22c73ef1428fb0c91e72fe14a4b6defa13035214187aff83604051612bee9190613bc7565b60405180910390a1505050565b8060046007811115612c36577f4e487b7100000000000000000000000000000000000000000000000000000000600052602160045260246000fd5b60076000838152602001908152602001600020600b0160009054906101000a900460ff166007811115612c92577f4e487b7100000000000000000000000000000000000000000000000000000000600052602160045260246000fd5b14612c9c57600080fd5b6007600083815260200190815260200160002060020160009054906101000a900473ffffffffffffffffffffffffffffffffffffffff168073ffffffffffffffffffffffffffffffffffffffff163373ffffffffffffffffffffffffffffffffffffffff1614612d41576040517f08c379a0000000000000000000000000000000000000000000000000000000008152600401612d3890613b45565b60405180910390fd5b600560076000858152602001908152602001600020600b0160006101000a81548160ff02191690836007811115612da1577f4e487b7100000000000000000000000000000000000000000000000000000000600052602160045260246000fd5b0217905550336007600085815260200190815260200160002060020160006101000a81548173ffffffffffffffffffffffffffffffffffffffff021916908373ffffffffffffffffffffffffffffffffffffffff1602179055507ff00b9a5725b80c54016f42114f6ed7792d22eecb116011c4afac29c57bef6c9583604051612e2a9190613bc7565b60405180910390a1505050565b600073ffffffffffffffffffffffffffffffffffffffff168173ffffffffffffffffffffffffffffffffffffffff161415612e7157600080fd5b612e7b8282612f3d565b15612e8557600080fd5b60018260000160008373ffffffffffffffffffffffffffffffffffffffff1673ffffffffffffffffffffffffffffffffffffffff16815260200190815260200160002060006101000a81548160ff0219169083151502179055505050565b612ef7816001612e3790919063ffffffff16565b8073ffffffffffffffffffffffffffffffffffffffff167f28b26e7a3d20aedbc5f8f2ebf7da671c0491723a2b78f47a097b0e46dee0714260405160405180910390a250565b60008073ffffffffffffffffffffffffffffffffffffffff168273ffffffffffffffffffffffffffffffffffffffff161415612f7857600080fd5b8260000160008373ffffffffffffffffffffffffffffffffffffffff1673ffffffffffffffffffffffffffffffffffffffff16815260200190815260200160002060009054906101000a900460ff16905092915050565b612fe381600161333c90919063ffffffff16565b8073ffffffffffffffffffffffffffffffffffffffff167fe3f5ed5f263f1f01764a96edfc7d025f511ec5f7d180e8816908b78bcf74f09860405160405180910390a250565b61303d81600461333c90919063ffffffff16565b8073ffffffffffffffffffffffffffffffffffffffff167f126174f6cf49c81cdb4a9214c6b8f037bef55b4ec31e4fc776cea2a1c8a88d5960405160405180910390a250565b613097816004612e3790919063ffffffff16565b8073ffffffffffffffffffffffffffffffffffffffff167fddbf200aa634dc3fb81cfd68583dd1040d1c751d335e1d86b631bde3e977fea860405160405180910390a250565b6130f1816003612e3790919063ffffffff16565b8073ffffffffffffffffffffffffffffffffffffffff167f2e0ded4123377a3c2bc9a26f1717655a129e2f20752924d42e730ec89c83dbd060405160405180910390a250565b61314b81600361333c90919063ffffffff16565b8073ffffffffffffffffffffffffffffffffffffffff167fa5e0f060af304ab17dd418c7927e3da3ae7868189bf387aee09ab179ccc572f260405160405180910390a250565b6131a5816002612e3790919063ffffffff16565b8073ffffffffffffffffffffffffffffffffffffffff167f71ae26cad02663e3d92efd6ec56031a80d74a20c0ab4183faa8bf262261c9baa60405160405180910390a250565b6131ff81600261333c90919063ffffffff16565b8073ffffffffffffffffffffffffffffffffffffffff167fdb7176e79cffef81cb01767dd0447a0b24bb72ca9778d4b245581086b2a7e6db60405160405180910390a250565b600073ffffffffffffffffffffffffffffffffffffffff168173ffffffffffffffffffffffffffffffffffffffff16141561327f57600080fd5b8073ffffffffffffffffffffffffffffffffffffffff1660008054906101000a900473ffffffffffffffffffffffffffffffffffffffff1673ffffffffffffffffffffffffffffffffffffffff167f5c486528ec3e3f0ea91181cff8116f02bfa350e03b8b6f12e00765adbb5af85c60405160405180910390a3806000806101000a81548173ffffffffffffffffffffffffffffffffffffffff021916908373ffffffffffffffffffffffffffffffffffffffff16021790555050565b600073ffffffffffffffffffffffffffffffffffffffff168173ffffffffffffffffffffffffffffffffffffffff16141561337657600080fd5b6133808282612f3d565b61338957600080fd5b60008260000160008373ffffffffffffffffffffffffffffffffffffffff1673ffffffffffffffffffffffffffffffffffffffff16815260200190815260200160002060006101000a81548160ff0219169083151502179055505050565b604051806101e001604052806000815260200160008152602001600073ffffffffffffffffffffffffffffffffffffffff168152602001600073ffffffffffffffffffffffffffffffffffffffff16815260200160608152602001606081526020016060815260200160608152602001600081526020016060815260200160008152602001600060078111156134a6577f4e487b7100000000000000000000000000000000000000000000000000000000600052602160045260246000fd5b8152602001600073ffffffffffffffffffffffffffffffffffffffff168152602001600073ffffffffffffffffffffffffffffffffffffffff168152602001600073ffffffffffffffffffffffffffffffffffffffff1681525090565b82805461350f90613db0565b90600052602060002090601f0160209004810192826135315760008555613578565b82601f1061354a57805160ff1916838001178555613578565b82800160010185558215613578579182015b8281111561357757825182559160200191906001019061355c565b5b5090506135859190613589565b5090565b5b808211156135a257600081600090555060010161358a565b5090565b60006135b96135b484613c07565b613be2565b9050828152602081018484840111156135d157600080fd5b6135dc848285613d6e565b509392505050565b6000813590506135f381613fea565b92915050565b600082601f83011261360a57600080fd5b813561361a8482602086016135a6565b91505092915050565b60008135905061363281614001565b92915050565b60006020828403121561364a57600080fd5b6000613658848285016135e4565b91505092915050565b60006020828403121561367357600080fd5b600061368184828501613623565b91505092915050565b600080600080600080600060e0888a0312156136a557600080fd5b60006136b38a828b01613623565b97505060206136c48a828b016135e4565b965050604088013567ffffffffffffffff8111156136e157600080fd5b6136ed8a828b016135f9565b955050606088013567ffffffffffffffff81111561370a57600080fd5b6137168a828b016135f9565b945050608088013567ffffffffffffffff81111561373357600080fd5b61373f8a828b016135f9565b93505060a088013567ffffffffffffffff81111561375c57600080fd5b6137688a828b016135f9565b92505060c088013567ffffffffffffffff81111561378557600080fd5b6137918a828b016135f9565b91505092959891949750929550565b600080604083850312156137b357600080fd5b60006137c185828601613623565b92505060206137d285828601613623565b9150509250929050565b6137e581613d01565b82525050565b6137f481613cef565b82525050565b61380381613cef565b82525050565b61381281613d13565b82525050565b61382181613d5c565b82525050565b600061383282613c38565b61383c8185613c43565b935061384c818560208601613d7d565b61385581613ecf565b840191505092915050565b600061386d600e83613c54565b915061387882613ee0565b602082019050919050565b6000613890600e83613c54565b915061389b82613f09565b602082019050919050565b60006138b3601183613c54565b91506138be82613f32565b602082019050919050565b60006138d6602083613c54565b91506138e182613f5b565b602082019050919050565b60006138f9600c83613c54565b915061390482613f84565b602082019050919050565b600061391c601a83613c54565b915061392782613fad565b602082019050919050565b60006101e08301600083015161394b6000860182613a91565b50602083015161395e6020860182613a91565b50604083015161397160408601826137eb565b50606083015161398460608601826137eb565b506080830151848203608086015261399c8282613827565b91505060a083015184820360a08601526139b68282613827565b91505060c083015184820360c08601526139d08282613827565b91505060e083015184820360e08601526139ea8282613827565b915050610100830151613a01610100860182613a91565b50610120830151848203610120860152613a1b8282613827565b915050610140830151613a32610140860182613a91565b50610160830151613a47610160860182613818565b50610180830151613a5c6101808601826137eb565b506101a0830151613a716101a08601826137eb565b506101c0830151613a866101c08601826137dc565b508091505092915050565b613a9a81613d52565b82525050565b613aa981613d52565b82525050565b6000602082019050613ac460008301846137fa565b92915050565b6000602082019050613adf6000830184613809565b92915050565b60006020820190508181036000830152613afe81613860565b9050919050565b60006020820190508181036000830152613b1e81613883565b9050919050565b60006020820190508181036000830152613b3e816138a6565b9050919050565b60006020820190508181036000830152613b5e816138c9565b9050919050565b60006020820190508181036000830152613b7e816138ec565b9050919050565b60006020820190508181036000830152613b9e8161390f565b9050919050565b60006020820190508181036000830152613bbf8184613932565b905092915050565b6000602082019050613bdc6000830184613aa0565b92915050565b6000613bec613bfd565b9050613bf88282613de2565b919050565b6000604051905090565b600067ffffffffffffffff821115613c2257613c21613ea0565b5b613c2b82613ecf565b9050602081019050919050565b600081519050919050565b600082825260208201905092915050565b600082825260208201905092915050565b6000613c7082613d52565b9150613c7b83613d52565b9250827fffffffffffffffffffffffffffffffffffffffffffffffffffffffffffffffff03821115613cb057613caf613e13565b5b828201905092915050565b6000613cc682613d52565b9150613cd183613d52565b925082821015613ce457613ce3613e13565b5b828203905092915050565b6000613cfa82613d32565b9050919050565b6000613d0c82613d32565b9050919050565b60008115159050919050565b6000819050613d2d82613fd6565b919050565b600073ffffffffffffffffffffffffffffffffffffffff82169050919050565b6000819050919050565b6000613d6782613d1f565b9050919050565b82818337600083830152505050565b60005b83811015613d9b578082015181840152602081019050613d80565b83811115613daa576000848401525b50505050565b60006002820490506001821680613dc857607f821691505b60208210811415613ddc57613ddb613e71565b5b50919050565b613deb82613ecf565b810181811067ffffffffffffffff82111715613e0a57613e09613ea0565b5b80604052505050565b7f4e487b7100000000000000000000000000000000000000000000000000000000600052601160045260246000fd5b7f4e487b7100000000000000000000000000000000000000000000000000000000600052602160045260246000fd5b7f4e487b7100000000000000000000000000000000000000000000000000000000600052602260045260246000fd5b7f4e487b7100000000000000000000000000000000000000000000000000000000600052604160045260246000fd5b6000601f19601f8301169050919050565b7f4e6f7420612072657461696c6572000000000000000000000000000000000000600082015250565b7f4e6f74206120636f6e73756d6572000000000000000000000000000000000000600082015250565b7f4e6f742061206469737472696275746f72000000000000000000000000000000600082015250565b7f4e6f7420746865206f776e6572206f66207468652063757272656e7420555043600082015250565b7f4e6f742061206661726d65720000000000000000000000000000000000000000600082015250565b7f496e73756666696369656e742066756e642070726f7669646564000000000000600082015250565b60088110613fe757613fe6613e42565b5b50565b613ff381613cef565b8114613ffe57600080fd5b50565b61400a81613d52565b811461401557600080fd5b5056fea264697066735822122031e30cba1a2d76f20b95bba2d457c524894d1e8dfa2b38410125dfe20cd1104f64736f6c63430008010033",
  "immutableReferences": {},
  "source": "// SPDX-License-Identifier: UNLICENSED\npragma solidity ^0.8.1;\n\nimport \"../coffeeaccesscontrol/ConsumerRole.sol\";\nimport \"../coffeeaccesscontrol/DistributorRole.sol\";\nimport \"../coffeeaccesscontrol/RetailerRole.sol\";\nimport \"../coffeeaccesscontrol/FarmerRole.sol\";\nimport \"../coffeecore/Ownable.sol\";\n\n// Define a contract 'Supplychain'\ncontract SupplyChain is Ownable, ConsumerRole, RetailerRole, FarmerRole, DistributorRole {\n\n  // Define 'owner'\n  //address payable owner;\n\n  // Define a variable called 'upc' for Universal Product Code (UPC)\n  uint  upc;\n\n  // Define a variable called 'sku' for Stock Keeping Unit (SKU)\n  uint  sku;\n\n  // Define a public mapping 'items' that maps the UPC to an Item.\n  mapping (uint => Item) items;\n\n  // Define a public mapping 'itemsHistory' that maps the UPC to an array of TxHash, \n  // that track its journey through the supply chain -- to be sent from DApp.\n  mapping (uint => string[]) itemsHistory;\n  \n  // Define enum 'State' with the following values:\n  enum State \n  { \n    Harvested,  // 0\n    Processed,  // 1\n    Packed,     // 2\n    ForSale,    // 3\n    Sold,       // 4\n    Shipped,    // 5\n    Received,   // 6\n    Purchased   // 7\n    }\n\n  State constant defaultState = State.Harvested;\n\n  // Define a struct 'Item' with the following fields:\n  struct Item {\n    uint    sku;  // Stock Keeping Unit (SKU)\n    uint    upc; // Universal Product Code (UPC), generated by the Farmer, goes on the package, can be verified by the Consumer\n    address ownerID;  // Metamask-Ethereum address of the current owner as the product moves through 8 stages\n    address originFarmerID; // Metamask-Ethereum address of the Farmer\n    string  originFarmName; // Farmer Name\n    string  originFarmInformation;  // Farmer Information\n    string  originFarmLatitude; // Farm Latitude\n    string  originFarmLongitude;  // Farm Longitude\n    uint    productID;  // Product ID potentially a combination of upc + sku\n    string  productNotes; // Product Notes\n    uint    productPrice; // Product Price\n    State   itemState;  // Product State as represented in the enum above\n    address distributorID;  // Metamask-Ethereum address of the Distributor\n    address retailerID; // Metamask-Ethereum address of the Retailer\n    address payable consumerID; // Metamask-Ethereum address of the Consumer\n  }\n\n  // Define 8 events with the same 8 state values and accept 'upc' as input argument\n  event Harvested(uint upc);\n  event Processed(uint upc);\n  event Packed(uint upc);\n  event ForSale(uint upc);\n  event Sold(uint upc);\n  event Shipped(uint upc);\n  event Received(uint upc);\n  event Purchased(uint upc);\n\n  // Define a modifer that checks to see if msg.sender == owner of the contract\n  // modifier onlyOwner() {\n  //   require(msg.sender == owner);\n  //   _;\n  // }\n\n  // Define a modifer that verifies the Caller\n  modifier verifyCaller (address _address) {\n    require(msg.sender == _address, \"Not the owner of the current UPC\"); \n    _;\n  }\n\n  // Define a modifier that checks if the paid amount is sufficient to cover the price\n  modifier paidEnough(uint _price) { \n    require(msg.value >= _price, \"Insufficient fund provided\"); \n    _;\n  }\n  \n  // Define a modifier that checks the price and refunds the remaining balance\n  modifier checkValue(uint _upc) {\n    _;\n    uint _price = items[_upc].productPrice;\n    uint amountToReturn = msg.value - _price;\n    //items[_upc].consumerID.transfer(amountToReturn);\n    payable(msg.sender).transfer(amountToReturn);\n  }\n\n  // Define a modifier that checks if an item.state of a upc is Harvested\n  modifier harvested(uint _upc) {\n    require(items[_upc].itemState == State.Harvested);\n    _;\n  }\n\n  // Define a modifier that checks if an item.state of a upc is Processed\n  modifier processed(uint _upc) {\n    require(items[_upc].itemState == State.Processed);\n    _;\n  }\n  \n  // Define a modifier that checks if an item.state of a upc is Packed\n  modifier packed(uint _upc) {\n    require(items[_upc].itemState == State.Packed);\n    _;\n  }\n\n  // Define a modifier that checks if an item.state of a upc is ForSale\n  modifier forSale(uint _upc) {\n    require(items[_upc].itemState == State.ForSale);\n    _;\n  }\n\n  // Define a modifier that checks if an item.state of a upc is Sold\n  modifier sold(uint _upc) {\n    require(items[_upc].itemState == State.Sold);\n    _;\n  }\n  \n  // Define a modifier that checks if an item.state of a upc is Shipped\n  modifier shipped(uint _upc) {\n    require(items[_upc].itemState == State.Shipped);\n    _;\n  }\n\n  // Define a modifier that checks if an item.state of a upc is Received\n  modifier received(uint _upc) {\n    require(items[_upc].itemState == State.Received);\n    _;\n  }\n\n  // Define a modifier that checks if an item.state of a upc is Purchased\n  modifier purchased(uint _upc) {\n    require(items[_upc].itemState == State.Received);    \n    _;\n  }\n\n  // In the constructor set 'owner' to the address that instantiated the contract\n  // and set 'sku' to 1\n  // and set 'upc' to 1\n  constructor() public payable {\n    //owner = payable(msg.sender);\n    sku = 1;\n    upc = 1;\n  }\n\n  // Define a function 'kill' if required\n  function kill() public {\n    // if (msg.sender == origOwner) {\n    //   selfdestruct(owner);\n    // }\n    Ownable.renounceOwnership();\n  }\n\n  // Define a function 'harvestItem' that allows a farmer to mark an item 'Harvested'\n  function harvestItem(uint _upc, address _originFarmerID, string memory _originFarmName, string memory _originFarmInformation, string  memory _originFarmLatitude, string memory  _originFarmLongitude, string memory _productNotes) public \n  FarmerRole.onlyFarmer\n  {\n    // Add the new item as part of Harvest\n  \n  items[_upc] = Item(\n    sku,  // Stock Keeping Unit (SKU)\n    _upc, // Universal Product Code (UPC), generated by the Farmer, goes on the package, can be verified by the Consumer\n    msg.sender,  // Metamask-Ethereum address of the current owner as the product moves through 8 stages\n    _originFarmerID, // Metamask-Ethereum address of the Farmer\n    _originFarmName, // Farmer Name\n    _originFarmInformation,  // Farmer Information\n    _originFarmLatitude, // Farm Latitude\n    _originFarmLongitude,  // Farm Longitude\n    _upc+sku,  // Product ID potentially a combination of upc + sku\n    _productNotes, // Product Notes\n    0, // Product Price\n    State.Harvested,  // Product State as represented in the enum above\n    address(0),  // Metamask-Ethereum address of the Distributor\n    address(0), // Metamask-Ethereum address of the Retailer\n    payable(address(0)) // Metamask-Ethereum address of the Consumer\n  );\n\n    // Increment sku\n    sku = sku + 1;\n    // Emit the appropriate event\n    emit Harvested(_upc);\n  }\n\n  // Define a function 'processtItem' that allows a farmer to mark an item 'Processed'\n  function processItem(uint _upc) public \n  // Call modifier to check if upc has passed previous supply chain stage\n  harvested(_upc)\n  // Call modifier to verify caller of this function\n  verifyCaller(items[_upc].ownerID)\n  {\n    // Update the appropriate fields\n    items[_upc].itemState = State.Processed;\n    // Emit the appropriate event\n    emit Processed(_upc);\n    \n  }\n\n  // Define a function 'packItem' that allows a farmer to mark an item 'Packed'\n  function packItem(uint _upc) public \n  // Call modifier to check if upc has passed previous supply chain stage\n  processed(_upc)\n  // Call modifier to verify caller of this function\n  verifyCaller(items[_upc].ownerID)\n  {\n    // Update the appropriate fields\n    items[_upc].itemState = State.Packed;\n    // Emit the appropriate event\n    emit Packed(_upc);\n  }\n\n  // Define a function 'sellItem' that allows a farmer to mark an item 'ForSale'\n  function sellItem(uint _upc, uint _price) public \n  // Call modifier to check if upc has passed previous supply chain stage\n  packed(_upc)\n  // Call modifier to verify caller of this function\n  verifyCaller(items[_upc].ownerID) \n  {\n    // Update the appropriate fields\n    items[_upc].itemState = State.ForSale;\n    items[_upc].productPrice = _price;\n    // Emit the appropriate event\n    emit ForSale(_upc);\n  }\n\n  // Define a function 'buyItem' that allows the disributor to mark an item 'Sold'\n  // Use the above defined modifiers to check if the item is available for sale, if the buyer has paid enough, \n  // and any excess ether sent is refunded back to the buyer\n  function buyItem(uint _upc) public payable \n    // Call modifier to check if upc has passed previous supply chain stage\n    forSale(_upc)\n    // Call modifer to check if buyer has paid enough\n    paidEnough(items[_upc].productPrice)\n    // Call modifer to send any excess ether back to buyer\n    checkValue(_upc)\n    DistributorRole.onlyDistributor\n    {\n    \n    // Update the appropriate fields - ownerID, distributorID, itemState\n    items[_upc].itemState = State.Sold;\n    items[_upc].ownerID = msg.sender;\n    items[_upc].distributorID = msg.sender;\n    // Transfer money to farmer\n    payable(items[_upc].originFarmerID).transfer(items[_upc].productPrice);\n    // emit the appropriate event\n    emit Sold(_upc);\n  }\n\n  // Define a function 'shipItem' that allows the distributor to mark an item 'Shipped'\n  // Use the above modifers to check if the item is sold\n  function shipItem(uint _upc) public \n    // Call modifier to check if upc has passed previous supply chain stage\n    sold(_upc)\n    // Call modifier to verify caller of this function\n    verifyCaller(items[_upc].ownerID)\n    {\n    // Update the appropriate fields\n    items[_upc].itemState = State.Shipped;\n    items[_upc].ownerID = msg.sender;\n    // Emit the appropriate event\n    emit Shipped(_upc);\n  }\n\n  // Define a function 'receiveItem' that allows the retailer to mark an item 'Received'\n  // Use the above modifiers to check if the item is shipped\n  function receiveItem(uint _upc) public \n    // Call modifier to check if upc has passed previous supply chain stage\n    shipped(_upc)\n    // Access Control List enforced by calling Smart Contract / DApp\n    RetailerRole.onlyRetailer\n    {\n    // Update the appropriate fields - ownerID, retailerID, itemState\n    items[_upc].itemState = State.Received;\n    items[_upc].retailerID = msg.sender;\n    items[_upc].ownerID = msg.sender;\n    // Emit the appropriate event\n    emit Received(_upc);\n  }\n\n  // Define a function 'purchaseItem' that allows the consumer to mark an item 'Purchased'\n  // Use the above modifiers to check if the item is received\n  function purchaseItem(uint _upc) public \n    // Call modifier to check if upc has passed previous supply chain stage\n    received(_upc)\n    \n    // Access Control List enforced by calling Smart Contract / DApp\n    ConsumerRole.onlyConsumer\n    {\n    // Update the appropriate fields - ownerID, consumerID, itemState\n    items[_upc].ownerID = msg.sender;\n    items[_upc].consumerID = payable(msg.sender);\n    items[_upc].itemState = State.Purchased;\n    \n    // Emit the appropriate event\n    emit Purchased(_upc);\n  }\n\n  function fetchItem(uint _upc) public view returns (Item memory item){\n    return items[_upc];\n  }\n\n\n  // Define a function 'fetchItemBufferOne' that fetches the data\n  // Original implementation with long list of retuen variables was giving an error\n  function fetchItemBufferOne(uint _upc) public view returns \n  (\n  Item memory item \n  ) \n  {\n  // Assign values to the 8 parameters  \n    return items[_upc];\n  }\n\n  // Define a function 'fetchItemBufferTwo' that fetches the data\n  // Original implementation with long list of retuen variables was giving an error\n  function fetchItemBufferTwo(uint _upc) public view returns \n  (\n  Item memory item \n  ) \n  {\n        return items[_upc];\n  }\n}\n",
  "sourcePath": "/Users/faisal/Dropbox/Udacity/Blockchain Developer/CoffeeSupplyChain/contracts/coffeebase/SupplyChain.sol",
  "compiler": {
    "name": "solc",
    "version": "0.8.1+commit.df193b15.Emscripten.clang"
  },
  "schemaVersion": "3.4.10",
  "updatedAt": "2022-11-03T18:14:38.470Z",
  "networkType": "ethereum",
  "devdoc": {
    "kind": "dev",
    "methods": {},
    "version": 1
  },
  "userdoc": {
    "kind": "user",
    "methods": {
      "isOwner()": {
        "notice": "Check if the calling address is the owner of the contract"
      },
      "owner()": {
        "notice": "Look up the address of the owner"
      },
      "renounceOwnership()": {
        "notice": "Define a function to renounce ownerhip"
      },
      "transferOwnership(address)": {
        "notice": "Define a public function to transfer ownership"
      }
    },
    "version": 1
  }
}